{
  "_format": "hh-sol-artifact-1",
  "contractName": "Marionette",
  "sourceName": "contracts/Marionette.sol",
  "abi": [
    {
      "inputs": [
        {
          "internalType": "address",
          "name": "unauthorizedSender",
          "type": "address"
        }
      ],
      "name": "Unauthorized",
      "type": "error"
    },
    {
      "anonymous": false,
      "inputs": [
        {
          "indexed": false,
          "internalType": "address",
          "name": "sender",
          "type": "address"
        },
        {
          "indexed": false,
          "internalType": "uint256",
          "name": "amount",
          "type": "uint256"
        }
      ],
      "name": "EtherReceived",
      "type": "event"
    },
    {
      "anonymous": false,
      "inputs": [
        {
          "indexed": false,
          "internalType": "address",
          "name": "receiver",
          "type": "address"
        },
        {
          "indexed": false,
          "internalType": "uint256",
          "name": "amount",
          "type": "uint256"
        }
      ],
      "name": "EtherSent",
      "type": "event"
    },
    {
      "anonymous": false,
      "inputs": [
        {
          "indexed": false,
          "internalType": "bytes",
          "name": "output",
          "type": "bytes"
        }
      ],
      "name": "FunctionCallResult",
      "type": "event"
    },
    {
      "anonymous": false,
      "inputs": [
        {
          "indexed": false,
          "internalType": "uint8",
          "name": "version",
          "type": "uint8"
        }
      ],
      "name": "Initialized",
      "type": "event"
    },
    {
      "anonymous": false,
      "inputs": [
        {
          "indexed": true,
          "internalType": "bytes32",
          "name": "role",
          "type": "bytes32"
        },
        {
          "indexed": true,
          "internalType": "bytes32",
          "name": "previousAdminRole",
          "type": "bytes32"
        },
        {
          "indexed": true,
          "internalType": "bytes32",
          "name": "newAdminRole",
          "type": "bytes32"
        }
      ],
      "name": "RoleAdminChanged",
      "type": "event"
    },
    {
      "anonymous": false,
      "inputs": [
        {
          "indexed": true,
          "internalType": "bytes32",
          "name": "role",
          "type": "bytes32"
        },
        {
          "indexed": true,
          "internalType": "address",
          "name": "account",
          "type": "address"
        },
        {
          "indexed": true,
          "internalType": "address",
          "name": "sender",
          "type": "address"
        }
      ],
      "name": "RoleGranted",
      "type": "event"
    },
    {
      "anonymous": false,
      "inputs": [
        {
          "indexed": true,
          "internalType": "bytes32",
          "name": "role",
          "type": "bytes32"
        },
        {
          "indexed": true,
          "internalType": "address",
          "name": "account",
          "type": "address"
        },
        {
          "indexed": true,
          "internalType": "address",
          "name": "sender",
          "type": "address"
        }
      ],
      "name": "RoleRevoked",
      "type": "event"
    },
    {
      "anonymous": false,
      "inputs": [
        {
          "indexed": false,
          "internalType": "string",
          "name": "oldVersion",
          "type": "string"
        },
        {
          "indexed": false,
          "internalType": "string",
          "name": "newVersion",
          "type": "string"
        }
      ],
      "name": "VersionUpdated",
      "type": "event"
    },
    {
      "inputs": [],
      "name": "ACCESS_VIOLATION",
      "outputs": [
        {
          "internalType": "string",
          "name": "",
          "type": "string"
        }
      ],
      "stateMutability": "view",
      "type": "function"
    },
    {
      "inputs": [],
      "name": "DEFAULT_ADMIN_ROLE",
      "outputs": [
        {
          "internalType": "bytes32",
          "name": "",
          "type": "bytes32"
        }
      ],
      "stateMutability": "view",
      "type": "function"
    },
    {
      "inputs": [],
      "name": "IMA_ROLE",
      "outputs": [
        {
          "internalType": "bytes32",
          "name": "",
          "type": "bytes32"
        }
      ],
      "stateMutability": "view",
      "type": "function"
    },
    {
      "inputs": [],
      "name": "PUPPETEER_ROLE",
      "outputs": [
        {
          "internalType": "bytes32",
          "name": "",
          "type": "bytes32"
        }
      ],
      "stateMutability": "view",
      "type": "function"
    },
    {
      "inputs": [
        {
          "internalType": "address",
          "name": "receiver",
          "type": "address"
        },
        {
          "internalType": "uint256",
          "name": "value",
          "type": "uint256"
        },
        {
          "internalType": "bytes",
          "name": "data",
          "type": "bytes"
        }
      ],
      "name": "encodeFunctionCall",
      "outputs": [
        {
          "internalType": "bytes",
          "name": "",
          "type": "bytes"
        }
      ],
      "stateMutability": "pure",
      "type": "function"
    },
    {
      "inputs": [
        {
          "internalType": "address payable",
          "name": "target",
          "type": "address"
        },
        {
          "internalType": "uint256",
          "name": "value",
          "type": "uint256"
        },
        {
          "internalType": "bytes",
          "name": "data",
          "type": "bytes"
        }
      ],
      "name": "execute",
      "outputs": [
        {
          "internalType": "bytes",
          "name": "",
          "type": "bytes"
        }
      ],
      "stateMutability": "payable",
      "type": "function"
    },
    {
      "inputs": [
        {
          "internalType": "bytes32",
          "name": "role",
          "type": "bytes32"
        }
      ],
      "name": "getRoleAdmin",
      "outputs": [
        {
          "internalType": "bytes32",
          "name": "",
          "type": "bytes32"
        }
      ],
      "stateMutability": "view",
      "type": "function"
    },
    {
      "inputs": [
        {
          "internalType": "bytes32",
          "name": "role",
          "type": "bytes32"
        },
        {
          "internalType": "uint256",
          "name": "index",
          "type": "uint256"
        }
      ],
      "name": "getRoleMember",
      "outputs": [
        {
          "internalType": "address",
          "name": "",
          "type": "address"
        }
      ],
      "stateMutability": "view",
      "type": "function"
    },
    {
      "inputs": [
        {
          "internalType": "bytes32",
          "name": "role",
          "type": "bytes32"
        }
      ],
      "name": "getRoleMemberCount",
      "outputs": [
        {
          "internalType": "uint256",
          "name": "",
          "type": "uint256"
        }
      ],
      "stateMutability": "view",
      "type": "function"
    },
    {
      "inputs": [
        {
          "internalType": "bytes32",
          "name": "role",
          "type": "bytes32"
        },
        {
          "internalType": "address",
          "name": "account",
          "type": "address"
        }
      ],
      "name": "grantRole",
      "outputs": [],
      "stateMutability": "nonpayable",
      "type": "function"
    },
    {
      "inputs": [
        {
          "internalType": "bytes32",
          "name": "role",
          "type": "bytes32"
        },
        {
          "internalType": "address",
          "name": "account",
          "type": "address"
        }
      ],
      "name": "hasRole",
      "outputs": [
        {
          "internalType": "bool",
          "name": "",
          "type": "bool"
        }
      ],
      "stateMutability": "view",
      "type": "function"
    },
    {
      "inputs": [
        {
          "internalType": "address",
          "name": "owner",
          "type": "address"
        },
        {
          "internalType": "address",
          "name": "ima",
          "type": "address"
        }
      ],
      "name": "initialize",
      "outputs": [],
      "stateMutability": "nonpayable",
      "type": "function"
    },
    {
      "inputs": [
        {
          "internalType": "bytes32",
          "name": "",
          "type": "bytes32"
        },
        {
          "internalType": "address",
          "name": "sender",
          "type": "address"
        },
        {
          "internalType": "bytes",
          "name": "data",
          "type": "bytes"
        }
      ],
      "name": "postMessage",
      "outputs": [],
      "stateMutability": "nonpayable",
      "type": "function"
    },
    {
      "inputs": [
        {
          "internalType": "bytes32",
          "name": "role",
          "type": "bytes32"
        },
        {
          "internalType": "address",
          "name": "account",
          "type": "address"
        }
      ],
      "name": "renounceRole",
      "outputs": [],
      "stateMutability": "nonpayable",
      "type": "function"
    },
    {
      "inputs": [
        {
          "internalType": "bytes32",
          "name": "role",
          "type": "bytes32"
        },
        {
          "internalType": "address",
          "name": "account",
          "type": "address"
        }
      ],
      "name": "revokeRole",
      "outputs": [],
      "stateMutability": "nonpayable",
      "type": "function"
    },
    {
      "inputs": [
        {
          "internalType": "address payable",
          "name": "target",
          "type": "address"
        },
        {
          "internalType": "uint256",
          "name": "value",
          "type": "uint256"
        }
      ],
      "name": "sendSFuel",
      "outputs": [],
      "stateMutability": "payable",
      "type": "function"
    },
    {
      "inputs": [
        {
          "internalType": "string",
          "name": "newVersion",
          "type": "string"
        }
      ],
      "name": "setVersion",
      "outputs": [],
      "stateMutability": "nonpayable",
      "type": "function"
    },
    {
      "inputs": [
        {
          "internalType": "bytes4",
          "name": "interfaceId",
          "type": "bytes4"
        }
      ],
      "name": "supportsInterface",
      "outputs": [
        {
          "internalType": "bool",
          "name": "",
          "type": "bool"
        }
      ],
      "stateMutability": "view",
      "type": "function"
    },
    {
      "inputs": [],
      "name": "version",
      "outputs": [
        {
          "internalType": "string",
          "name": "",
          "type": "string"
        }
      ],
      "stateMutability": "view",
      "type": "function"
    },
    {
      "stateMutability": "payable",
      "type": "receive"
    }
  ],
  "bytecode": "0x608060405234801561001057600080fd5b50611b51806100206000396000f3fe6080604052600436106101185760003560e01c8063884cee5a116100a0578063b3c9af0611610064578063b3c9af061461037e578063b61d27f614610391578063ca15c873146103a4578063d547741f146103c4578063f81299b9146103e457600080fd5b8063884cee5a146102b55780639010d07c146102d557806391d148541461030d5780639bba6b781461032d578063a217fddf1461036957600080fd5b806334216d62116100e757806334216d621461021e57806336568abe14610240578063485cc9551461026057806354fd4d5014610280578063788bc78c1461029557600080fd5b806301ffc9a71461015c5780631e69959114610191578063248a9ca3146101be5780632f2ff15d146101fc57600080fd5b3661015757604080513381523460208201527f1e57e3bb474320be3d2c77138f75b7c3941292d647f5f9634e33a8e94e0e069b910160405180910390a1005b600080fd5b34801561016857600080fd5b5061017c6101773660046114cf565b610418565b60405190151581526020015b60405180910390f35b34801561019d57600080fd5b506101b16101ac366004611557565b610443565b604051610188919061160f565b3480156101ca57600080fd5b506101ee6101d9366004611622565b60009081526065602052604090206001015490565b604051908152602001610188565b34801561020857600080fd5b5061021c61021736600461163b565b61045c565b005b34801561022a57600080fd5b506101ee600080516020611afc83398151915281565b34801561024c57600080fd5b5061021c61025b36600461163b565b610486565b34801561026c57600080fd5b5061021c61027b36600461166b565b610509565b34801561028c57600080fd5b506101b1610677565b3480156102a157600080fd5b5061021c6102b0366004611699565b610705565b3480156102c157600080fd5b5061021c6102d03660046116db565b610777565b3480156102e157600080fd5b506102f56102f036600461171f565b6108a9565b6040516001600160a01b039091168152602001610188565b34801561031957600080fd5b5061017c61032836600461163b565b6108c8565b34801561033957600080fd5b506101b16040518060400160405280601081526020016f20b1b1b2b9b9903b34b7b630ba34b7b760811b81525081565b34801561037557600080fd5b506101ee600081565b61021c61038c366004611741565b6108f3565b6101b161039f366004611557565b610978565b3480156103b057600080fd5b506101ee6103bf366004611622565b610a1b565b3480156103d057600080fd5b5061021c6103df36600461163b565b610a32565b3480156103f057600080fd5b506101ee7f18f7915ceb1a15dd0c3170ef6d30ba89e0bcb07f4fb55858579385663709107e81565b60006001600160e01b03198216635a05180f60e01b148061043d575061043d82610a57565b92915050565b606061045185858585610a8c565b90505b949350505050565b60008281526065602052604090206001015461047781610abe565b6104818383610acb565b505050565b6001600160a01b03811633146104fb5760405162461bcd60e51b815260206004820152602f60248201527f416363657373436f6e74726f6c3a2063616e206f6e6c792072656e6f756e636560448201526e103937b632b9903337b91039b2b63360891b60648201526084015b60405180910390fd5b6105058282610aed565b5050565b600054610100900460ff16158080156105295750600054600160ff909116105b806105435750303b158015610543575060005460ff166001145b6105a65760405162461bcd60e51b815260206004820152602e60248201527f496e697469616c697a61626c653a20636f6e747261637420697320616c72656160448201526d191e481a5b9a5d1a585b1a5e995960921b60648201526084016104f2565b6000805460ff1916600117905580156105c9576000805461ff0019166101001790555b6105d1610b0f565b6105dc600030610b7c565b6105f4600080516020611afc83398151915284610b7c565b6001600160a01b0382161561062d5761062d7f18f7915ceb1a15dd0c3170ef6d30ba89e0bcb07f4fb55858579385663709107e83610b7c565b8015610481576000805461ff0019169055604051600181527f7f26b83ff96e1f2b6a682f133852f6798a09c465da95921460cefb38474024989060200160405180910390a1505050565b60c980546106849061176d565b80601f01602080910402602001604051908101604052809291908181526020018280546106b09061176d565b80156106fd5780601f106106d2576101008083540402835291602001916106fd565b820191906000526020600020905b8154815290600101906020018083116106e057829003601f168201915b505050505081565b6107106000336108c8565b61072f5760405163472511eb60e11b81523360048201526024016104f2565b7f22efc5f993dce37856b77dd72d7d7661032380c9728c4133f3c071c591bc6ca760c98383604051610763939291906117d1565b60405180910390a161048160c98383611436565b6107a17f18f7915ceb1a15dd0c3170ef6d30ba89e0bcb07f4fb55858579385663709107e336108c8565b6107e15760405162461bcd60e51b815260206004820152601160248201527053656e646572206973206e6f7420494d4160781b60448201526064016104f2565b6107f9600080516020611afc833981519152846108c8565b6040518060400160405280601081526020016f20b1b1b2b9b9903b34b7b630ba34b7b760811b815250906108405760405162461bcd60e51b81526004016104f2919061160f565b50600061084d8383610b86565b90506000610868826000015183602001518460400151610bac565b90507f96dfc08ca2be84df03b6ba50ac467a2e3cfa446eebcc623851fbee1ba030178481604051610899919061160f565b60405180910390a1505050505050565b60008281526097602052604081206108c19083610c9e565b9392505050565b60009182526065602090815260408084206001600160a01b0393909316845291905290205460ff1690565b61090b600080516020611afc833981519152336108c8565b6040518060400160405280601081526020016f20b1b1b2b9b9903b34b7b630ba34b7b760811b815250906109525760405162461bcd60e51b81526004016104f2919061160f565b50610481828260405180604001604052806002815260200161060f60f31b815250610bac565b6060610992600080516020611afc833981519152336108c8565b6040518060400160405280601081526020016f20b1b1b2b9b9903b34b7b630ba34b7b760811b815250906109d95760405162461bcd60e51b81526004016104f2919061160f565b50610451858585858080601f016020809104026020016040519081016040528093929190818152602001838380828437600092019190915250610bac92505050565b600081815260976020526040812061043d90610caa565b600082815260656020526040902060010154610a4d81610abe565b6104818383610aed565b60006001600160e01b03198216637965db0b60e01b148061043d57506301ffc9a760e01b6001600160e01b031983161461043d565b606084848484604051602001610aa5949392919061188f565b6040516020818303038152906040529050949350505050565b610ac88133610cb4565b50565b610ad58282610d0d565b60008281526097602052604090206104819082610d93565b610af78282610da8565b60008281526097602052604090206104819082610e0f565b600054610100900460ff16610b7a5760405162461bcd60e51b815260206004820152602b60248201527f496e697469616c697a61626c653a20636f6e7472616374206973206e6f74206960448201526a6e697469616c697a696e6760a81b60648201526084016104f2565b565b6105058282610acb565b604080516060808201835260008083526020830152918101919091526108c18383610e24565b60603415610bed57604080513381523460208201527f1e57e3bb474320be3d2c77138f75b7c3941292d647f5f9634e33a8e94e0e069b910160405180910390a15b8215610c3657604080516001600160a01b0386168152602081018590527f6109e2559dfa766aaec7118351d48a523f0a4157f49c8d68749c8ac41318ad12910160405180910390a15b6001600160a01b0384163b15610c6a576004825110610c6a57610c636001600160a01b0385168385610e67565b90506108c1565b610c7d6001600160a01b03851684610e8d565b50604080518082019091526002815261060f60f31b60208201529392505050565b60006108c18383610fa6565b600061043d825490565b610cbe82826108c8565b61050557610ccb81610fd0565b610cd6836020610fe2565b604051602001610ce79291906118b7565b60408051601f198184030181529082905262461bcd60e51b82526104f29160040161160f565b610d1782826108c8565b6105055760008281526065602090815260408083206001600160a01b03851684529091529020805460ff19166001179055610d4f3390565b6001600160a01b0316816001600160a01b0316837f2f8788117e7eff1d82e926ec794901d17c78024a50270940304540a733656f0d60405160405180910390a45050565b60006108c1836001600160a01b03841661117e565b610db282826108c8565b156105055760008281526065602090815260408083206001600160a01b0385168085529252808320805460ff1916905551339285917ff6391f5c32d9c69d2a47ea670b442974b53935d1edc7fd64eb21e047a839171b9190a45050565b60006108c1836001600160a01b0384166111cd565b60408051606080820183526000808352602083015291810191909152610e4c82840184611942565b604084015260208301526001600160a01b0316815292915050565b6060610454848484604051806060016040528060298152602001611ad3602991396112c0565b80471015610edd5760405162461bcd60e51b815260206004820152601d60248201527f416464726573733a20696e73756666696369656e742062616c616e636500000060448201526064016104f2565b6000826001600160a01b03168260405160006040518083038185875af1925050503d8060008114610f2a576040519150601f19603f3d011682016040523d82523d6000602084013e610f2f565b606091505b50509050806104815760405162461bcd60e51b815260206004820152603a60248201527f416464726573733a20756e61626c6520746f2073656e642076616c75652c207260448201527f6563697069656e74206d6179206861766520726576657274656400000000000060648201526084016104f2565b6000826000018281548110610fbd57610fbd611a0f565b9060005260206000200154905092915050565b606061043d6001600160a01b03831660145b60606000610ff1836002611a3b565b610ffc906002611a5a565b67ffffffffffffffff8111156110145761101461192c565b6040519080825280601f01601f19166020018201604052801561103e576020820181803683370190505b509050600360fc1b8160008151811061105957611059611a0f565b60200101906001600160f81b031916908160001a905350600f60fb1b8160018151811061108857611088611a0f565b60200101906001600160f81b031916908160001a90535060006110ac846002611a3b565b6110b7906001611a5a565b90505b600181111561112f576f181899199a1a9b1b9c1cb0b131b232b360811b85600f16601081106110eb576110eb611a0f565b1a60f81b82828151811061110157611101611a0f565b60200101906001600160f81b031916908160001a90535060049490941c9361112881611a72565b90506110ba565b5083156108c15760405162461bcd60e51b815260206004820181905260248201527f537472696e67733a20686578206c656e67746820696e73756666696369656e7460448201526064016104f2565b60008181526001830160205260408120546111c55750815460018181018455600084815260208082209093018490558454848252828601909352604090209190915561043d565b50600061043d565b600081815260018301602052604081205480156112b65760006111f1600183611a89565b855490915060009061120590600190611a89565b905081811461126a57600086600001828154811061122557611225611a0f565b906000526020600020015490508087600001848154811061124857611248611a0f565b6000918252602080832090910192909255918252600188019052604090208390555b855486908061127b5761127b611aa0565b60019003818190600052602060002001600090559055856001016000868152602001908152602001600020600090556001935050505061043d565b600091505061043d565b6060824710156113215760405162461bcd60e51b815260206004820152602660248201527f416464726573733a20696e73756666696369656e742062616c616e636520666f6044820152651c8818d85b1b60d21b60648201526084016104f2565b600080866001600160a01b0316858760405161133d9190611ab6565b60006040518083038185875af1925050503d806000811461137a576040519150601f19603f3d011682016040523d82523d6000602084013e61137f565b606091505b50915091506113908783838761139b565b979650505050505050565b60608315611407578251611400576001600160a01b0385163b6114005760405162461bcd60e51b815260206004820152601d60248201527f416464726573733a2063616c6c20746f206e6f6e2d636f6e747261637400000060448201526064016104f2565b5081610454565b610454838381511561141c5781518083602001fd5b8060405162461bcd60e51b81526004016104f2919061160f565b8280546114429061176d565b90600052602060002090601f01602090048101928261146457600085556114aa565b82601f1061147d5782800160ff198235161785556114aa565b828001600101855582156114aa579182015b828111156114aa57823582559160200191906001019061148f565b506114b69291506114ba565b5090565b5b808211156114b657600081556001016114bb565b6000602082840312156114e157600080fd5b81356001600160e01b0319811681146108c157600080fd5b6001600160a01b0381168114610ac857600080fd5b60008083601f84011261152057600080fd5b50813567ffffffffffffffff81111561153857600080fd5b60208301915083602082850101111561155057600080fd5b9250929050565b6000806000806060858703121561156d57600080fd5b8435611578816114f9565b935060208501359250604085013567ffffffffffffffff81111561159b57600080fd5b6115a78782880161150e565b95989497509550505050565b60005b838110156115ce5781810151838201526020016115b6565b838111156115dd576000848401525b50505050565b600081518084526115fb8160208601602086016115b3565b601f01601f19169290920160200192915050565b6020815260006108c160208301846115e3565b60006020828403121561163457600080fd5b5035919050565b6000806040838503121561164e57600080fd5b823591506020830135611660816114f9565b809150509250929050565b6000806040838503121561167e57600080fd5b8235611689816114f9565b91506020830135611660816114f9565b600080602083850312156116ac57600080fd5b823567ffffffffffffffff8111156116c357600080fd5b6116cf8582860161150e565b90969095509350505050565b600080600080606085870312156116f157600080fd5b843593506020850135611703816114f9565b9250604085013567ffffffffffffffff81111561159b57600080fd5b6000806040838503121561173257600080fd5b50508035926020909101359150565b6000806040838503121561175457600080fd5b823561175f816114f9565b946020939093013593505050565b600181811c9082168061178157607f821691505b602082108114156117a257634e487b7160e01b600052602260045260246000fd5b50919050565b81835281816020850137506000828201602090810191909152601f909101601f19169091010190565b60408152600080855481600182811c9150808316806117f157607f831692505b602080841082141561181157634e487b7160e01b86526022600452602486fd5b604088018490526060880182801561183057600181146118415761186c565b60ff1987168252828201975061186c565b60008d81526020902060005b878110156118665781548482015290860190840161184d565b83019850505b50508786038189015250505050506118858185876117a8565b9695505050505050565b60018060a01b03851681528360208201526060604082015260006118856060830184866117a8565b7f416363657373436f6e74726f6c3a206163636f756e74200000000000000000008152600083516118ef8160178501602088016115b3565b7001034b99036b4b9b9b4b733903937b6329607d1b60179184019182015283516119208160288401602088016115b3565b01602801949350505050565b634e487b7160e01b600052604160045260246000fd5b60008060006060848603121561195757600080fd5b8335611962816114f9565b925060208401359150604084013567ffffffffffffffff8082111561198657600080fd5b818601915086601f83011261199a57600080fd5b8135818111156119ac576119ac61192c565b604051601f8201601f19908116603f011681019083821181831017156119d4576119d461192c565b816040528281528960208487010111156119ed57600080fd5b8260208601602083013760006020848301015280955050505050509250925092565b634e487b7160e01b600052603260045260246000fd5b634e487b7160e01b600052601160045260246000fd5b6000816000190483118215151615611a5557611a55611a25565b500290565b60008219821115611a6d57611a6d611a25565b500190565b600081611a8157611a81611a25565b506000190190565b600082821015611a9b57611a9b611a25565b500390565b634e487b7160e01b600052603160045260246000fd5b60008251611ac88184602087016115b3565b919091019291505056fe416464726573733a206c6f772d6c6576656c2063616c6c20776974682076616c7565206661696c6564dbe8b307f60c9ed0e3764e9100b17f1d4c5fd58ba7889d208d166f481302d4cfa26469706673582212209158f85a7711bf176103a5f99c39ab98ac0fc4033d265997d48fbcf73f35e78564736f6c634300080b0033",
  "linkReferences": {},
  "deployedLinkReferences": {}
}